{
  "contractName": "Voting",
  "abi": [
    {
      "anonymous": false,
      "inputs": [
        {
          "indexed": false,
          "internalType": "uint256",
          "name": "roomId",
          "type": "uint256"
        },
        {
          "indexed": false,
          "internalType": "uint256",
          "name": "id",
          "type": "uint256"
        },
        {
          "indexed": false,
          "internalType": "string",
          "name": "name",
          "type": "string"
        },
        {
          "indexed": false,
          "internalType": "string",
          "name": "IC",
          "type": "string"
        }
      ],
      "name": "CandidateAdded",
      "type": "event"
    },
    {
      "anonymous": false,
      "inputs": [
        {
          "indexed": false,
          "internalType": "uint256",
          "name": "roomId",
          "type": "uint256"
        },
        {
          "indexed": false,
          "internalType": "uint256",
          "name": "candidateId",
          "type": "uint256"
        }
      ],
      "name": "CandidateDeleted",
      "type": "event"
    },
    {
      "anonymous": false,
      "inputs": [
        {
          "indexed": false,
          "internalType": "uint256",
          "name": "roomId",
          "type": "uint256"
        },
        {
          "indexed": false,
          "internalType": "uint256",
          "name": "candidateId",
          "type": "uint256"
        },
        {
          "indexed": false,
          "internalType": "string",
          "name": "newName",
          "type": "string"
        }
      ],
      "name": "CandidateEdited",
      "type": "event"
    },
    {
      "anonymous": false,
      "inputs": [
        {
          "indexed": false,
          "internalType": "bytes32[]",
          "name": "hashes",
          "type": "bytes32[]"
        }
      ],
      "name": "DebugHashes",
      "type": "event"
    },
    {
      "anonymous": false,
      "inputs": [
        {
          "indexed": false,
          "internalType": "uint256",
          "name": "id",
          "type": "uint256"
        },
        {
          "indexed": false,
          "internalType": "uint256",
          "name": "startDate",
          "type": "uint256"
        },
        {
          "indexed": false,
          "internalType": "uint256",
          "name": "endDate",
          "type": "uint256"
        },
        {
          "indexed": false,
          "internalType": "string",
          "name": "name",
          "type": "string"
        }
      ],
      "name": "RoomCreated",
      "type": "event"
    },
    {
      "anonymous": false,
      "inputs": [
        {
          "indexed": false,
          "internalType": "uint256",
          "name": "id",
          "type": "uint256"
        }
      ],
      "name": "RoomDeleted",
      "type": "event"
    },
    {
      "anonymous": false,
      "inputs": [
        {
          "indexed": false,
          "internalType": "uint256",
          "name": "roomId",
          "type": "uint256"
        },
        {
          "indexed": false,
          "internalType": "uint256",
          "name": "candidateID",
          "type": "uint256"
        }
      ],
      "name": "Voted",
      "type": "event"
    },
    {
      "inputs": [],
      "name": "candidateCount",
      "outputs": [
        {
          "internalType": "uint256",
          "name": "",
          "type": "uint256"
        }
      ],
      "stateMutability": "view",
      "type": "function"
    },
    {
      "inputs": [
        {
          "internalType": "uint256",
          "name": "",
          "type": "uint256"
        },
        {
          "internalType": "uint256",
          "name": "",
          "type": "uint256"
        }
      ],
      "name": "roomCandidates",
      "outputs": [
        {
          "internalType": "uint256",
          "name": "id",
          "type": "uint256"
        },
        {
          "internalType": "string",
          "name": "name",
          "type": "string"
        },
        {
          "internalType": "string",
          "name": "IC",
          "type": "string"
        },
        {
          "internalType": "uint256",
          "name": "voteCount",
          "type": "uint256"
        }
      ],
      "stateMutability": "view",
      "type": "function"
    },
    {
      "inputs": [],
      "name": "roomCount",
      "outputs": [
        {
          "internalType": "uint256",
          "name": "",
          "type": "uint256"
        }
      ],
      "stateMutability": "view",
      "type": "function"
    },
    {
      "inputs": [
        {
          "internalType": "uint256",
          "name": "",
          "type": "uint256"
        },
        {
          "internalType": "uint256",
          "name": "",
          "type": "uint256"
        }
      ],
      "name": "roomTransactionHashes",
      "outputs": [
        {
          "internalType": "bytes32",
          "name": "",
          "type": "bytes32"
        }
      ],
      "stateMutability": "view",
      "type": "function"
    },
    {
      "inputs": [
        {
          "internalType": "address",
          "name": "",
          "type": "address"
        },
        {
          "internalType": "uint256",
          "name": "",
          "type": "uint256"
        }
      ],
      "name": "votes",
      "outputs": [
        {
          "internalType": "bool",
          "name": "",
          "type": "bool"
        }
      ],
      "stateMutability": "view",
      "type": "function"
    },
    {
      "inputs": [
        {
          "internalType": "uint256",
          "name": "",
          "type": "uint256"
        }
      ],
      "name": "votingRooms",
      "outputs": [
        {
          "internalType": "uint256",
          "name": "id",
          "type": "uint256"
        },
        {
          "internalType": "uint256",
          "name": "startDate",
          "type": "uint256"
        },
        {
          "internalType": "uint256",
          "name": "endDate",
          "type": "uint256"
        },
        {
          "internalType": "string",
          "name": "name",
          "type": "string"
        }
      ],
      "stateMutability": "view",
      "type": "function"
    },
    {
      "inputs": [
        {
          "internalType": "uint256",
          "name": "_startDate",
          "type": "uint256"
        },
        {
          "internalType": "uint256",
          "name": "_endDate",
          "type": "uint256"
        },
        {
          "internalType": "string",
          "name": "_name",
          "type": "string"
        }
      ],
      "name": "createVotingRoom",
      "outputs": [],
      "stateMutability": "nonpayable",
      "type": "function"
    },
    {
      "inputs": [
        {
          "internalType": "uint256",
          "name": "roomId",
          "type": "uint256"
        },
        {
          "internalType": "string",
          "name": "name",
          "type": "string"
        },
        {
          "internalType": "string",
          "name": "IC",
          "type": "string"
        }
      ],
      "name": "addCandidate",
      "outputs": [],
      "stateMutability": "nonpayable",
      "type": "function"
    },
    {
      "inputs": [
        {
          "internalType": "uint256",
          "name": "roomId",
          "type": "uint256"
        },
        {
          "internalType": "uint256",
          "name": "candidateID",
          "type": "uint256"
        }
      ],
      "name": "vote",
      "outputs": [],
      "stateMutability": "nonpayable",
      "type": "function"
    },
    {
      "inputs": [],
      "name": "getAllVotingRooms",
      "outputs": [
        {
          "components": [
            {
              "internalType": "uint256",
              "name": "id",
              "type": "uint256"
            },
            {
              "internalType": "uint256",
              "name": "startDate",
              "type": "uint256"
            },
            {
              "internalType": "uint256",
              "name": "endDate",
              "type": "uint256"
            },
            {
              "internalType": "string",
              "name": "name",
              "type": "string"
            }
          ],
          "internalType": "struct Voting.Room[]",
          "name": "",
          "type": "tuple[]"
        }
      ],
      "stateMutability": "view",
      "type": "function"
    },
    {
      "inputs": [
        {
          "internalType": "uint256",
          "name": "roomId",
          "type": "uint256"
        }
      ],
      "name": "getRoomCandidates",
      "outputs": [
        {
          "components": [
            {
              "internalType": "uint256",
              "name": "id",
              "type": "uint256"
            },
            {
              "internalType": "string",
              "name": "name",
              "type": "string"
            },
            {
              "internalType": "string",
              "name": "IC",
              "type": "string"
            },
            {
              "internalType": "uint256",
              "name": "voteCount",
              "type": "uint256"
            }
          ],
          "internalType": "struct Voting.Candidate[]",
          "name": "",
          "type": "tuple[]"
        }
      ],
      "stateMutability": "view",
      "type": "function"
    },
    {
      "inputs": [
        {
          "internalType": "uint256",
          "name": "candidateID",
          "type": "uint256"
        }
      ],
      "name": "getCandidate",
      "outputs": [
        {
          "components": [
            {
              "internalType": "uint256",
              "name": "id",
              "type": "uint256"
            },
            {
              "internalType": "string",
              "name": "name",
              "type": "string"
            },
            {
              "internalType": "string",
              "name": "IC",
              "type": "string"
            },
            {
              "internalType": "uint256",
              "name": "voteCount",
              "type": "uint256"
            }
          ],
          "internalType": "struct Voting.Candidate",
          "name": "",
          "type": "tuple"
        }
      ],
      "stateMutability": "view",
      "type": "function"
    },
    {
      "inputs": [
        {
          "internalType": "uint256",
          "name": "roomId",
          "type": "uint256"
        },
        {
          "internalType": "uint256",
          "name": "candidateId",
          "type": "uint256"
        },
        {
          "internalType": "string",
          "name": "newName",
          "type": "string"
        }
      ],
      "name": "editCandidate",
      "outputs": [],
      "stateMutability": "nonpayable",
      "type": "function"
    },
    {
      "inputs": [
        {
          "internalType": "uint256",
          "name": "roomId",
          "type": "uint256"
        },
        {
          "internalType": "uint256",
          "name": "candidateId",
          "type": "uint256"
        }
      ],
      "name": "deleteCandidate",
      "outputs": [],
      "stateMutability": "nonpayable",
      "type": "function"
    },
    {
      "inputs": [
        {
          "internalType": "uint256",
          "name": "roomId",
          "type": "uint256"
        }
      ],
      "name": "deleteAllCandidates",
      "outputs": [],
      "stateMutability": "nonpayable",
      "type": "function"
    },
    {
      "inputs": [
        {
          "internalType": "uint256",
          "name": "roomId",
          "type": "uint256"
        }
      ],
      "name": "deleteVotingRoom",
      "outputs": [],
      "stateMutability": "nonpayable",
      "type": "function"
    },
    {
      "inputs": [
        {
          "internalType": "uint256",
          "name": "roomId",
          "type": "uint256"
        },
        {
          "internalType": "bytes32",
          "name": "txHash",
          "type": "bytes32"
        }
      ],
      "name": "storeTransactionHash",
      "outputs": [],
      "stateMutability": "nonpayable",
      "type": "function"
    },
    {
      "inputs": [
        {
          "internalType": "uint256",
          "name": "roomId",
          "type": "uint256"
        }
      ],
      "name": "getRoomTransactionHashes",
      "outputs": [
        {
          "internalType": "bytes32[]",
          "name": "",
          "type": "bytes32[]"
        }
      ],
      "stateMutability": "view",
      "type": "function"
    }
  ],
  "bytecode": "0x60806040526000600455600060055534801561001a57600080fd5b50612ef48061002a6000396000f3fe608060405234801561001057600080fd5b50600436106101165760003560e01c80638a505c70116100a2578063ac64c38011610071578063ac64c38014610309578063b384abef14610339578063cf4a606014610355578063df93a4e314610371578063e6c62efc1461038f57610116565b80638a505c70146102835780638e1d151e1461029f5780639f2524ee146102bb578063a9a981a3146102eb57610116565b8063546d0f8a116100e9578063546d0f8a146101b35780636b70d5e5146101d15780636d3bf5d714610201578063730d0108146102345780637fde15bb1461026757610116565b8063140b5b461461011b57806322d241c51461013757806328e3570b1461015357806335b8e82014610183575b600080fd5b61013560048036038101906101309190611ad5565b6103ab565b005b610151600480360381019061014c9190611c48565b610411565b005b61016d60048036038101906101689190611ad5565b610534565b60405161017a9190611e71565b60405180910390f35b61019d60048036038101906101989190611ad5565b610722565b6040516101aa9190611efd565b60405180910390f35b6101bb61097c565b6040516101c89190612044565b60405180910390f35b6101eb60048036038101906101e69190611ad5565b610b00565b6040516101f8919061212e565b60405180910390f35b61021b60048036038101906102169190612150565b610baf565b60405161022b94939291906121e9565b60405180910390f35b61024e60048036038101906102499190611ad5565b610d0c565b60405161025e949392919061223c565b60405180910390f35b610281600480360381019061027c9190611c48565b610dd4565b005b61029d60048036038101906102989190611ad5565b610f31565b005b6102b960048036038101906102b491906122b4565b6110fc565b005b6102d560048036038101906102d09190612352565b6111c7565b6040516102e291906123ad565b60405180910390f35b6102f36111f6565b60405161030091906123c8565b60405180910390f35b610323600480360381019061031e9190612150565b6111fc565b60405161033091906123f2565b60405180910390f35b610353600480360381019061034e9190612150565b61122d565b005b61036f600480360381019061036a9190612150565b6115d8565b005b6103796117ed565b60405161038691906123c8565b60405180910390f35b6103a960048036038101906103a4919061240d565b6117f3565b005b60045481106103ef576040517f08c379a00000000000000000000000000000000000000000000000000000000081526004016103e6906124e4565b60405180910390fd5b60016000828152602001908152602001600020600061040e9190611935565b50565b81831115610454576040517f08c379a000000000000000000000000000000000000000000000000000000000815260040161044b90612576565b60405180910390fd5b60006040518060800160405280600454815260200185815260200184815260200183815250908060018154018082558091505060019003906000526020600020906004020160009091909190915060008201518160000155602082015181600101556040820151816002015560608201518160030190816104d591906127a2565b5050507fde1fc638b0153bcd20ce572c85d28a0d9dfc0f74eff7addb32fc3bedfbff25d960045484848460405161050f949392919061223c565b60405180910390a16004600081548092919061052a906128a3565b9190505550505050565b6060600454821061057a576040517f08c379a0000000000000000000000000000000000000000000000000000000008152600401610571906124e4565b60405180910390fd5b60016000838152602001908152602001600020805480602002602001604051908101604052809291908181526020016000905b828210156107175783829060005260206000209060040201604051806080016040529081600082015481526020016001820180546105ea906125c5565b80601f0160208091040260200160405190810160405280929190818152602001828054610616906125c5565b80156106635780601f1061063857610100808354040283529160200191610663565b820191906000526020600020905b81548152906001019060200180831161064657829003601f168201915b5050505050815260200160028201805461067c906125c5565b80601f01602080910402602001604051908101604052809291908181526020018280546106a8906125c5565b80156106f55780601f106106ca576101008083540402835291602001916106f5565b820191906000526020600020905b8154815290600101906020018083116106d857829003601f168201915b50505050508152602001600382015481525050815260200190600101906105ad565b505050509050919050565b61072a611959565b60005b60045481101561093b5760005b6001600083815260200190815260200160002080549050821015610927578360016000848152602001908152602001600020828154811061077e5761077d6128eb565b5b90600052602060002090600402016000015403610914576001600083815260200190815260200160002081815481106107ba576107b96128eb565b5b9060005260206000209060040201604051806080016040529081600082015481526020016001820180546107ed906125c5565b80601f0160208091040260200160405190810160405280929190818152602001828054610819906125c5565b80156108665780601f1061083b57610100808354040283529160200191610866565b820191906000526020600020905b81548152906001019060200180831161084957829003601f168201915b5050505050815260200160028201805461087f906125c5565b80601f01602080910402602001604051908101604052809291908181526020018280546108ab906125c5565b80156108f85780601f106108cd576101008083540402835291602001916108f8565b820191906000526020600020905b8154815290600101906020018083116108db57829003601f168201915b5050505050815260200160038201548152505092505050610977565b808061091f906128a3565b91505061073a565b508080610933906128a3565b91505061072d565b506040517f08c379a000000000000000000000000000000000000000000000000000000000815260040161096e90612966565b60405180910390fd5b919050565b60606000808054905067ffffffffffffffff81111561099e5761099d611b1d565b5b6040519080825280602002602001820160405280156109d757816020015b6109c4611981565b8152602001906001900390816109bc5790505b50905060005b600080549050811015610af857600081815481106109fe576109fd6128eb565b5b9060005260206000209060040201604051806080016040529081600082015481526020016001820154815260200160028201548152602001600382018054610a45906125c5565b80601f0160208091040260200160405190810160405280929190818152602001828054610a71906125c5565b8015610abe5780601f10610a9357610100808354040283529160200191610abe565b820191906000526020600020905b815481529060010190602001808311610aa157829003601f168201915b505050505081525050828281518110610ada57610ad96128eb565b5b60200260200101819052508080610af0906128a3565b9150506109dd565b508091505090565b60606004548210610b46576040517f08c379a0000000000000000000000000000000000000000000000000000000008152600401610b3d906124e4565b60405180910390fd5b60036000838152602001908152602001600020805480602002602001604051908101604052809291908181526020018280548015610ba357602002820191906000526020600020905b815481526020019060010190808311610b8f575b50505050509050919050565b60016020528160005260406000208181548110610bcb57600080fd5b906000526020600020906004020160009150915050806000015490806001018054610bf5906125c5565b80601f0160208091040260200160405190810160405280929190818152602001828054610c21906125c5565b8015610c6e5780601f10610c4357610100808354040283529160200191610c6e565b820191906000526020600020905b815481529060010190602001808311610c5157829003601f168201915b505050505090806002018054610c83906125c5565b80601f0160208091040260200160405190810160405280929190818152602001828054610caf906125c5565b8015610cfc5780601f10610cd157610100808354040283529160200191610cfc565b820191906000526020600020905b815481529060010190602001808311610cdf57829003601f168201915b5050505050908060030154905084565b60008181548110610d1c57600080fd5b9060005260206000209060040201600091509050806000015490806001015490806002015490806003018054610d51906125c5565b80601f0160208091040260200160405190810160405280929190818152602001828054610d7d906125c5565b8015610dca5780601f10610d9f57610100808354040283529160200191610dca565b820191906000526020600020905b815481529060010190602001808311610dad57829003601f168201915b5050505050905084565b6004548310610e18576040517f08c379a0000000000000000000000000000000000000000000000000000000008152600401610e0f906124e4565b60405180910390fd5b600060016000858152602001908152602001600020905060005b8180549050811015610ef05783828281548110610e5257610e516128eb565b5b90600052602060002090600402016000015403610edd5782828281548110610e7d57610e7c6128eb565b5b90600052602060002090600402016001019081610e9a91906127a2565b507f34dbb62e7e63e10f45a3c5fdae612ddcfa463f00a84a7f291f4f2807a8e49181858585604051610ece93929190612986565b60405180910390a15050610f2c565b8080610ee8906128a3565b915050610e32565b506040517f08c379a0000000000000000000000000000000000000000000000000000000008152600401610f2390612a36565b60405180910390fd5b505050565b6004548110610f75576040517f08c379a0000000000000000000000000000000000000000000000000000000008152600401610f6c906124e4565b60405180910390fd5b600160008281526020019081526020016000206000610f949190611935565b600360008281526020019081526020016000206000610fb391906119a9565b6001600080549050610fc59190612a56565b81146110575760006001600080549050610fdf9190612a56565b81548110610ff057610fef6128eb565b5b906000526020600020906004020160008281548110611012576110116128eb565b5b9060005260206000209060040201600082015481600001556001820154816001015560028201548160020155600382018160030190816110529190612aa0565b509050505b600080548061106957611068612b88565b5b6001900381819060005260206000209060040201600080820160009055600182016000905560028201600090556003820160006110a691906119ca565b50509055600460008154809291906110bd90612bb7565b91905055507f640a818bdd6ca14bdd2cf9cdac867db41b7a8832e5c24995d200910d60e7e4dc816040516110f191906123c8565b60405180910390a150565b6004548210611140576040517f08c379a0000000000000000000000000000000000000000000000000000000008152600401611137906124e4565b60405180910390fd5b600360008381526020019081526020016000208190806001815401808255809150506001900390600052602060002001600090919091909150557fdc69338a521cdb8ab6c782ae6af742eadca82175953cc81a6d14df981405cba6600360008481526020019081526020016000206040516111bb9190612cb6565b60405180910390a15050565b60026020528160005260406000206020528060005260406000206000915091509054906101000a900460ff1681565b60055481565b6003602052816000526040600020818154811061121857600080fd5b90600052602060002001600091509150505481565b6004548210611271576040517f08c379a0000000000000000000000000000000000000000000000000000000008152600401611268906124e4565b60405180910390fd5b600260003373ffffffffffffffffffffffffffffffffffffffff1673ffffffffffffffffffffffffffffffffffffffff168152602001908152602001600020600083815260200190815260200160002060009054906101000a900460ff161561130f576040517f08c379a000000000000000000000000000000000000000000000000000000000815260040161130690612d4a565b60405180910390fd5b6000808381548110611324576113236128eb565b5b906000526020600020906004020160405180608001604052908160008201548152602001600182015481526020016002820154815260200160038201805461136b906125c5565b80601f0160208091040260200160405190810160405280929190818152602001828054611397906125c5565b80156113e45780601f106113b9576101008083540402835291602001916113e4565b820191906000526020600020905b8154815290600101906020018083116113c757829003601f168201915b505050505081525050905080602001514210158015611407575080604001514211155b611446576040517f08c379a000000000000000000000000000000000000000000000000000000000815260040161143d90612db6565b60405180910390fd5b60006001600085815260200190815260200160002090506000805b82805490508110156114ee5784838281548110611481576114806128eb565b5b906000526020600020906004020160000154036114db578281815481106114ab576114aa6128eb565b5b906000526020600020906004020160030160008154809291906114cd906128a3565b9190505550600191506114ee565b80806114e6906128a3565b915050611461565b508061152f576040517f08c379a000000000000000000000000000000000000000000000000000000000815260040161152690612e22565b60405180910390fd5b6001600260003373ffffffffffffffffffffffffffffffffffffffff1673ffffffffffffffffffffffffffffffffffffffff168152602001908152602001600020600087815260200190815260200160002060006101000a81548160ff0219169083151502179055507f84a5508ca0d85b42a876e75a9126f3ae7b43617ce60b170bf8805d34630bc65485856040516115c9929190612e42565b60405180910390a15050505050565b600454821061161c576040517f08c379a0000000000000000000000000000000000000000000000000000000008152600401611613906124e4565b60405180910390fd5b600060016000848152602001908152602001600020905060005b81805490508110156117ad5782828281548110611656576116556128eb565b5b9060005260206000209060040201600001540361179a57816001838054905061167f9190612a56565b815481106116905761168f6128eb565b5b90600052602060002090600402018282815481106116b1576116b06128eb565b5b906000526020600020906004020160008201548160000155600182018160010190816116dd9190612aa0565b50600282018160020190816116f29190612aa0565b50600382015481600301559050508180548061171157611710612b88565b5b600190038181906000526020600020906004020160008082016000905560018201600061173e91906119ca565b60028201600061174e91906119ca565b6003820160009055505090557f48bf3ef4944e20b74a7ae7804d664a8e9ba28141c5fc26163c87f7fbc9e90e2f848460405161178b929190612e42565b60405180910390a150506117e9565b80806117a5906128a3565b915050611636565b506040517f08c379a00000000000000000000000000000000000000000000000000000000081526004016117e090612a36565b60405180910390fd5b5050565b60045481565b6004548310611837576040517f08c379a000000000000000000000000000000000000000000000000000000000815260040161182e906124e4565b60405180910390fd5b6001600084815260200190815260200160002060405180608001604052806005548152602001848152602001838152602001600081525090806001815401808255809150506001900390600052602060002090600402016000909190919091506000820151816000015560208201518160010190816118b691906127a2565b5060408201518160020190816118cc91906127a2565b506060820151816003015550507f503cfceb0fb2178c5fb47ff394c816e4075abc8066c3dcb16d08a76847ee6e168360055484846040516119109493929190612e6b565b60405180910390a16005600081548092919061192b906128a3565b9190505550505050565b50805460008255600402906000526020600020908101906119569190611a0a565b50565b6040518060800160405280600081526020016060815260200160608152602001600081525090565b6040518060800160405280600081526020016000815260200160008152602001606081525090565b50805460008255906000526020600020908101906119c79190611a51565b50565b5080546119d6906125c5565b6000825580601f106119e85750611a07565b601f016020900490600052602060002090810190611a069190611a6e565b5b50565b5b80821115611a4d57600080820160009055600182016000611a2c91906119ca565b600282016000611a3c91906119ca565b600382016000905550600401611a0b565b5090565b5b80821115611a6a576000816000905550600101611a52565b5090565b5b80821115611a87576000816000905550600101611a6f565b5090565b6000604051905090565b600080fd5b600080fd5b6000819050919050565b611ab281611a9f565b8114611abd57600080fd5b50565b600081359050611acf81611aa9565b92915050565b600060208284031215611aeb57611aea611a95565b5b6000611af984828501611ac0565b91505092915050565b600080fd5b600080fd5b6000601f19601f8301169050919050565b7f4e487b7100000000000000000000000000000000000000000000000000000000600052604160045260246000fd5b611b5582611b0c565b810181811067ffffffffffffffff82111715611b7457611b73611b1d565b5b80604052505050565b6000611b87611a8b565b9050611b938282611b4c565b919050565b600067ffffffffffffffff821115611bb357611bb2611b1d565b5b611bbc82611b0c565b9050602081019050919050565b82818337600083830152505050565b6000611beb611be684611b98565b611b7d565b905082815260208101848484011115611c0757611c06611b07565b5b611c12848285611bc9565b509392505050565b600082601f830112611c2f57611c2e611b02565b5b8135611c3f848260208601611bd8565b91505092915050565b600080600060608486031215611c6157611c60611a95565b5b6000611c6f86828701611ac0565b9350506020611c8086828701611ac0565b925050604084013567ffffffffffffffff811115611ca157611ca0611a9a565b5b611cad86828701611c1a565b9150509250925092565b600081519050919050565b600082825260208201905092915050565b6000819050602082019050919050565b611cec81611a9f565b82525050565b600081519050919050565b600082825260208201905092915050565b60005b83811015611d2c578082015181840152602081019050611d11565b60008484015250505050565b6000611d4382611cf2565b611d4d8185611cfd565b9350611d5d818560208601611d0e565b611d6681611b0c565b840191505092915050565b6000608083016000830151611d896000860182611ce3565b5060208301518482036020860152611da18282611d38565b91505060408301518482036040860152611dbb8282611d38565b9150506060830151611dd06060860182611ce3565b508091505092915050565b6000611de78383611d71565b905092915050565b6000602082019050919050565b6000611e0782611cb7565b611e118185611cc2565b935083602082028501611e2385611cd3565b8060005b85811015611e5f5784840389528151611e408582611ddb565b9450611e4b83611def565b925060208a01995050600181019050611e27565b50829750879550505050505092915050565b60006020820190508181036000830152611e8b8184611dfc565b905092915050565b6000608083016000830151611eab6000860182611ce3565b5060208301518482036020860152611ec38282611d38565b91505060408301518482036040860152611edd8282611d38565b9150506060830151611ef26060860182611ce3565b508091505092915050565b60006020820190508181036000830152611f178184611e93565b905092915050565b600081519050919050565b600082825260208201905092915050565b6000819050602082019050919050565b6000608083016000830151611f636000860182611ce3565b506020830151611f766020860182611ce3565b506040830151611f896040860182611ce3565b5060608301518482036060860152611fa18282611d38565b9150508091505092915050565b6000611fba8383611f4b565b905092915050565b6000602082019050919050565b6000611fda82611f1f565b611fe48185611f2a565b935083602082028501611ff685611f3b565b8060005b8581101561203257848403895281516120138582611fae565b945061201e83611fc2565b925060208a01995050600181019050611ffa565b50829750879550505050505092915050565b6000602082019050818103600083015261205e8184611fcf565b905092915050565b600081519050919050565b600082825260208201905092915050565b6000819050602082019050919050565b6000819050919050565b6120a581612092565b82525050565b60006120b7838361209c565b60208301905092915050565b6000602082019050919050565b60006120db82612066565b6120e58185612071565b93506120f083612082565b8060005b8381101561212157815161210888826120ab565b9750612113836120c3565b9250506001810190506120f4565b5085935050505092915050565b6000602082019050818103600083015261214881846120d0565b905092915050565b6000806040838503121561216757612166611a95565b5b600061217585828601611ac0565b925050602061218685828601611ac0565b9150509250929050565b61219981611a9f565b82525050565b600082825260208201905092915050565b60006121bb82611cf2565b6121c5818561219f565b93506121d5818560208601611d0e565b6121de81611b0c565b840191505092915050565b60006080820190506121fe6000830187612190565b818103602083015261221081866121b0565b9050818103604083015261222481856121b0565b90506122336060830184612190565b95945050505050565b60006080820190506122516000830187612190565b61225e6020830186612190565b61226b6040830185612190565b818103606083015261227d81846121b0565b905095945050505050565b61229181612092565b811461229c57600080fd5b50565b6000813590506122ae81612288565b92915050565b600080604083850312156122cb576122ca611a95565b5b60006122d985828601611ac0565b92505060206122ea8582860161229f565b9150509250929050565b600073ffffffffffffffffffffffffffffffffffffffff82169050919050565b600061231f826122f4565b9050919050565b61232f81612314565b811461233a57600080fd5b50565b60008135905061234c81612326565b92915050565b6000806040838503121561236957612368611a95565b5b60006123778582860161233d565b925050602061238885828601611ac0565b9150509250929050565b60008115159050919050565b6123a781612392565b82525050565b60006020820190506123c2600083018461239e565b92915050565b60006020820190506123dd6000830184612190565b92915050565b6123ec81612092565b82525050565b600060208201905061240760008301846123e3565b92915050565b60008060006060848603121561242657612425611a95565b5b600061243486828701611ac0565b935050602084013567ffffffffffffffff81111561245557612454611a9a565b5b61246186828701611c1a565b925050604084013567ffffffffffffffff81111561248257612481611a9a565b5b61248e86828701611c1a565b9150509250925092565b7f496e76616c696420726f6f6d2049440000000000000000000000000000000000600082015250565b60006124ce600f8361219f565b91506124d982612498565b602082019050919050565b600060208201905081810360008301526124fd816124c1565b9050919050565b7f53746172742064617465206d757374206265206265666f726520656e6420646160008201527f7465000000000000000000000000000000000000000000000000000000000000602082015250565b600061256060228361219f565b915061256b82612504565b604082019050919050565b6000602082019050818103600083015261258f81612553565b9050919050565b7f4e487b7100000000000000000000000000000000000000000000000000000000600052602260045260246000fd5b600060028204905060018216806125dd57607f821691505b6020821081036125f0576125ef612596565b5b50919050565b60008190508160005260206000209050919050565b60006020601f8301049050919050565b600082821b905092915050565b6000600883026126587fffffffffffffffffffffffffffffffffffffffffffffffffffffffffffffffff8261261b565b612662868361261b565b95508019841693508086168417925050509392505050565b6000819050919050565b600061269f61269a61269584611a9f565b61267a565b611a9f565b9050919050565b6000819050919050565b6126b983612684565b6126cd6126c5826126a6565b848454612628565b825550505050565b600090565b6126e26126d5565b6126ed8184846126b0565b505050565b5b81811015612711576127066000826126da565b6001810190506126f3565b5050565b601f82111561275657612727816125f6565b6127308461260b565b8101602085101561273f578190505b61275361274b8561260b565b8301826126f2565b50505b505050565b600082821c905092915050565b60006127796000198460080261275b565b1980831691505092915050565b60006127928383612768565b9150826002028217905092915050565b6127ab82611cf2565b67ffffffffffffffff8111156127c4576127c3611b1d565b5b6127ce82546125c5565b6127d9828285612715565b600060209050601f83116001811461280c57600084156127fa578287015190505b6128048582612786565b86555061286c565b601f19841661281a866125f6565b60005b828110156128425784890151825560018201915060208501945060208101905061281d565b8683101561285f578489015161285b601f891682612768565b8355505b6001600288020188555050505b505050505050565b7f4e487b7100000000000000000000000000000000000000000000000000000000600052601160045260246000fd5b60006128ae82611a9f565b91507fffffffffffffffffffffffffffffffffffffffffffffffffffffffffffffffff82036128e0576128df612874565b5b600182019050919050565b7f4e487b7100000000000000000000000000000000000000000000000000000000600052603260045260246000fd5b7f43616e646964617465206e6f7420666f756e6400000000000000000000000000600082015250565b600061295060138361219f565b915061295b8261291a565b602082019050919050565b6000602082019050818103600083015261297f81612943565b9050919050565b600060608201905061299b6000830186612190565b6129a86020830185612190565b81810360408301526129ba81846121b0565b9050949350505050565b7f43616e646964617465206e6f7420666f756e6420696e2074686520737065636960008201527f6669656420726f6f6d0000000000000000000000000000000000000000000000602082015250565b6000612a2060298361219f565b9150612a2b826129c4565b604082019050919050565b60006020820190508181036000830152612a4f81612a13565b9050919050565b6000612a6182611a9f565b9150612a6c83611a9f565b9250828203905081811115612a8457612a83612874565b5b92915050565b600081549050612a99816125c5565b9050919050565b818103612aae575050612b86565b612ab782612a8a565b67ffffffffffffffff811115612ad057612acf611b1d565b5b612ada82546125c5565b612ae5828285612715565b6000601f831160018114612b145760008415612b02578287015490505b612b0c8582612786565b865550612b7f565b601f198416612b22876125f6565b9650612b2d866125f6565b60005b82811015612b5557848901548255600182019150600185019450602081019050612b30565b86831015612b725784890154612b6e601f891682612768565b8355505b6001600288020188555050505b5050505050505b565b7f4e487b7100000000000000000000000000000000000000000000000000000000600052603160045260246000fd5b6000612bc282611a9f565b915060008203612bd557612bd4612874565b5b600182039050919050565b600081549050919050565b60008190508160005260206000209050919050565b60008160001c9050919050565b6000819050919050565b6000612c2a612c2583612c00565b612c0d565b9050919050565b6000612c3d8254612c17565b9050919050565b6000600182019050919050565b6000612c5c82612be0565b612c668185612071565b9350612c7183612beb565b8060005b83811015612ca957612c8682612c31565b612c9088826120ab565b9750612c9b83612c44565b925050600181019050612c75565b5085935050505092915050565b60006020820190508181036000830152612cd08184612c51565b905092915050565b7f596f75206861766520616c726561647920766f74656420696e2074686973207260008201527f6f6f6d0000000000000000000000000000000000000000000000000000000000602082015250565b6000612d3460238361219f565b9150612d3f82612cd8565b604082019050919050565b60006020820190508181036000830152612d6381612d27565b9050919050565b7f566f74696e67206973206e6f74206f70656e0000000000000000000000000000600082015250565b6000612da060128361219f565b9150612dab82612d6a565b602082019050919050565b60006020820190508181036000830152612dcf81612d93565b9050919050565b7f496e76616c69642063616e646964617465204944000000000000000000000000600082015250565b6000612e0c60148361219f565b9150612e1782612dd6565b602082019050919050565b60006020820190508181036000830152612e3b81612dff565b9050919050565b6000604082019050612e576000830185612190565b612e646020830184612190565b9392505050565b6000608082019050612e806000830187612190565b612e8d6020830186612190565b8181036040830152612e9f81856121b0565b90508181036060830152612eb381846121b0565b90509594505050505056fea2646970667358221220d4d6779b3c8711a29c972d52505a36a33be9064b06e882e9091a01f02a2c3a5d64736f6c63430008130033",
  "immutableReferences": {},
  "source": "// SPDX-License-Identifier: MIT\r\npragma solidity ^0.8.0;\r\n\r\ncontract Voting {\r\n    struct Room {\r\n        uint256 id;\r\n        uint256 startDate;\r\n        uint256 endDate;\r\n        string name;\r\n    }\r\n\r\n    struct Candidate {\r\n        uint256 id;\r\n        string name;\r\n        string IC;\r\n        uint256 voteCount;\r\n    }\r\n\r\n    Room[] public votingRooms;\r\n    mapping(uint256 => Candidate[]) public roomCandidates;\r\n    mapping(address => mapping(uint256 => bool)) public votes;\r\n    mapping(uint256 => bytes32[]) public roomTransactionHashes;\r\n\r\n    uint256 public roomCount = 0;\r\n    uint256 public candidateCount = 0;\r\n\r\n    event RoomCreated(uint256 id, uint256 startDate, uint256 endDate, string name);\r\n    event CandidateAdded(uint256 roomId, uint256 id, string name, string IC);\r\n    event CandidateEdited(uint256 roomId, uint256 candidateId, string newName);\r\n    event CandidateDeleted(uint256 roomId, uint256 candidateId);\r\n    event RoomDeleted(uint256 id);\r\n    event Voted(uint256 roomId, uint256 candidateID);\r\n    event DebugHashes(bytes32[] hashes); \r\n\r\n    function createVotingRoom(uint256 _startDate, uint256 _endDate, string memory _name) public {\r\n        require(_startDate <= _endDate, \"Start date must be before end date\");\r\n        votingRooms.push(Room(roomCount, _startDate, _endDate, _name));\r\n        emit RoomCreated(roomCount, _startDate, _endDate, _name);\r\n        roomCount++;\r\n    }\r\n\r\n    function addCandidate(uint256 roomId, string memory name, string memory IC) public {\r\n        require(roomId < roomCount, \"Invalid room ID\");\r\n        roomCandidates[roomId].push(Candidate(candidateCount, name, IC, 0));\r\n        emit CandidateAdded(roomId, candidateCount, name, IC);\r\n        candidateCount++;\r\n    }\r\n\r\n    function vote(uint256 roomId, uint256 candidateID) public {\r\n        require(roomId < roomCount, \"Invalid room ID\");\r\n        require(!votes[msg.sender][roomId], \"You have already voted in this room\");\r\n\r\n        Room memory room = votingRooms[roomId];\r\n        require(block.timestamp >= room.startDate && block.timestamp <= room.endDate, \"Voting is not open\");\r\n\r\n        Candidate[] storage candidates = roomCandidates[roomId];\r\n        bool validCandidate = false;\r\n        for (uint i = 0; i < candidates.length; i++) {\r\n            if (candidates[i].id == candidateID) {\r\n                candidates[i].voteCount++;\r\n                validCandidate = true;\r\n                break;\r\n            }\r\n        }\r\n        require(validCandidate, \"Invalid candidate ID\");\r\n\r\n        votes[msg.sender][roomId] = true;\r\n\r\n        emit Voted(roomId, candidateID);\r\n    }\r\n\r\n    function getAllVotingRooms() public view returns (Room[] memory) {\r\n        Room[] memory roomsMemory = new Room[](votingRooms.length);\r\n        for (uint i = 0; i < votingRooms.length; i++) {\r\n            roomsMemory[i] = votingRooms[i];\r\n        }\r\n        return roomsMemory;\r\n    }\r\n\r\n    function getRoomCandidates(uint256 roomId) public view returns (Candidate[] memory) {\r\n        require(roomId < roomCount, \"Invalid room ID\");\r\n        return roomCandidates[roomId];\r\n    }\r\n\r\n    function getCandidate(uint256 candidateID) public view returns (Candidate memory) {\r\n        for (uint256 i = 0; i < roomCount; i++) {\r\n            for (uint256 j = 0; i < roomCandidates[i].length; j++) {\r\n                if (roomCandidates[i][j].id == candidateID) {\r\n                    return roomCandidates[i][j];\r\n                }\r\n            }\r\n        }\r\n        revert(\"Candidate not found\");\r\n    }\r\n\r\n    function editCandidate(uint256 roomId, uint256 candidateId, string memory newName) public {\r\n        require(roomId < roomCount, \"Invalid room ID\");\r\n        Candidate[] storage candidates = roomCandidates[roomId];\r\n        for (uint256 i = 0; i < candidates.length; i++) {\r\n            if (candidates[i].id == candidateId) {\r\n                candidates[i].name = newName;\r\n                emit CandidateEdited(roomId, candidateId, newName);\r\n                return;\r\n            }\r\n        }\r\n        revert(\"Candidate not found in the specified room\");\r\n    }\r\n\r\n    function deleteCandidate(uint256 roomId, uint256 candidateId) public {\r\n        require(roomId < roomCount, \"Invalid room ID\");\r\n        Candidate[] storage candidates = roomCandidates[roomId];\r\n        for (uint256 i = 0; i < candidates.length; i++) {\r\n            if (candidates[i].id == candidateId) {\r\n                candidates[i] = candidates[candidates.length - 1];\r\n                candidates.pop();\r\n                emit CandidateDeleted(roomId, candidateId);\r\n                return;\r\n            }\r\n        }\r\n        revert(\"Candidate not found in the specified room\");\r\n    }\r\n\r\n    function deleteAllCandidates(uint256 roomId) public {\r\n        require(roomId < roomCount, \"Invalid room ID\");\r\n        delete roomCandidates[roomId];\r\n    }\r\n\r\n    function deleteVotingRoom(uint256 roomId) public {\r\n        require(roomId < roomCount, \"Invalid room ID\");\r\n\r\n        delete roomCandidates[roomId];\r\n        delete roomTransactionHashes[roomId];\r\n\r\n        if (roomId != votingRooms.length - 1) {\r\n            votingRooms[roomId] = votingRooms[votingRooms.length - 1];\r\n        }\r\n        votingRooms.pop();\r\n        roomCount--;\r\n\r\n        emit RoomDeleted(roomId);\r\n    }\r\n\r\n    function storeTransactionHash(uint256 roomId, bytes32 txHash) public {\r\n        require(roomId < roomCount, \"Invalid room ID\");\r\n        roomTransactionHashes[roomId].push(txHash);\r\n        emit DebugHashes(roomTransactionHashes[roomId]);\r\n    }\r\n\r\n    function getRoomTransactionHashes(uint256 roomId) public view returns (bytes32[] memory) {\r\n        require(roomId < roomCount, \"Invalid room ID\");\r\n        return roomTransactionHashes[roomId];\r\n    }\r\n}\r\n",
  "sourcePath": "C:\\Users\\MSi\\my-app\\contracts\\voting.sol",
  "compiler": {
    "name": "solc",
    "version": "0.8.19+commit.7dd6d404.Emscripten.clang"
  },
  "schemaVersion": "3.4.16",
  "updatedAt": "2024-07-01T04:59:49.879Z",
  "devdoc": {
    "kind": "dev",
    "methods": {},
    "version": 1
  },
  "userdoc": {
    "kind": "user",
    "methods": {},
    "version": 1
  }
}