{
  "contractName": "CreateVote",
  "abi": [
    {
      "anonymous": false,
      "inputs": [
        {
          "indexed": true,
          "internalType": "address",
          "name": "creator",
          "type": "address"
        },
        {
          "indexed": false,
          "internalType": "string",
          "name": "title",
          "type": "string"
        },
        {
          "indexed": true,
          "internalType": "uint256",
          "name": "roomId",
          "type": "uint256"
        }
      ],
      "name": "PollRoomCreated",
      "type": "event"
    },
    {
      "inputs": [
        {
          "internalType": "uint256",
          "name": "",
          "type": "uint256"
        }
      ],
      "name": "pollRooms",
      "outputs": [
        {
          "internalType": "address",
          "name": "creator",
          "type": "address"
        },
        {
          "internalType": "string",
          "name": "title",
          "type": "string"
        },
        {
          "internalType": "uint256",
          "name": "createdAt",
          "type": "uint256"
        }
      ],
      "stateMutability": "view",
      "type": "function",
      "constant": true
    },
    {
      "inputs": [
        {
          "internalType": "string",
          "name": "_title",
          "type": "string"
        }
      ],
      "name": "createPollRoom",
      "outputs": [],
      "stateMutability": "nonpayable",
      "type": "function"
    },
    {
      "inputs": [
        {
          "internalType": "uint256",
          "name": "roomId",
          "type": "uint256"
        },
        {
          "internalType": "address",
          "name": "voter",
          "type": "address"
        }
      ],
      "name": "addVoter",
      "outputs": [],
      "stateMutability": "nonpayable",
      "type": "function"
    },
    {
      "inputs": [],
      "name": "getPollRoomCount",
      "outputs": [
        {
          "internalType": "uint256",
          "name": "",
          "type": "uint256"
        }
      ],
      "stateMutability": "view",
      "type": "function",
      "constant": true
    }
  ],
  "bytecode": "0x608060405234801561001057600080fd5b50610c5b806100206000396000f3fe608060405234801561001057600080fd5b506004361061004c5760003560e01c80630939132114610051578063a05ea0bf1461006d578063a3a21af61461008b578063c752b9df146100a7575b600080fd5b61006b60048036038101906100669190610535565b6100d9565b005b6100756101aa565b6040516100829190610584565b60405180910390f35b6100a560048036038101906100a091906106e5565b6101b6565b005b6100c160048036038101906100bc919061072e565b610304565b6040516100d0939291906107e9565b60405180910390f35b6000805490508210610120576040517f08c379a000000000000000000000000000000000000000000000000000000000815260040161011790610873565b60405180910390fd5b6000828154811061013457610133610893565b5b9060005260206000209060040201600301819080600181540180825580915050600190039060005260206000200160009091909190916101000a81548173ffffffffffffffffffffffffffffffffffffffff021916908373ffffffffffffffffffffffffffffffffffffffff1602179055505050565b60008080549050905090565b6060600060405180608001604052803373ffffffffffffffffffffffffffffffffffffffff16815260200184815260200142815260200183815250908060018154018082558091505060019003906000526020600020906004020160009091909190915060008201518160000160006101000a81548173ffffffffffffffffffffffffffffffffffffffff021916908373ffffffffffffffffffffffffffffffffffffffff16021790555060208201518160010190816102769190610ace565b5060408201518160020155606082015181600301908051906020019061029d9291906103e6565b50505060016000805490506102b29190610bcf565b3373ffffffffffffffffffffffffffffffffffffffff167f87f805a5561e37e8f852c4d39d81ac543a9b0846d4a41831903eb120197f199f846040516102f89190610c03565b60405180910390a35050565b6000818154811061031457600080fd5b90600052602060002090600402016000915090508060000160009054906101000a900473ffffffffffffffffffffffffffffffffffffffff169080600101805461035d906108f1565b80601f0160208091040260200160405190810160405280929190818152602001828054610389906108f1565b80156103d65780601f106103ab576101008083540402835291602001916103d6565b820191906000526020600020905b8154815290600101906020018083116103b957829003601f168201915b5050505050908060020154905083565b82805482825590600052602060002090810192821561045f579160200282015b8281111561045e5782518260006101000a81548173ffffffffffffffffffffffffffffffffffffffff021916908373ffffffffffffffffffffffffffffffffffffffff16021790555091602001919060010190610406565b5b50905061046c9190610470565b5090565b5b80821115610489576000816000905550600101610471565b5090565b6000604051905090565b600080fd5b600080fd5b6000819050919050565b6104b4816104a1565b81146104bf57600080fd5b50565b6000813590506104d1816104ab565b92915050565b600073ffffffffffffffffffffffffffffffffffffffff82169050919050565b6000610502826104d7565b9050919050565b610512816104f7565b811461051d57600080fd5b50565b60008135905061052f81610509565b92915050565b6000806040838503121561054c5761054b610497565b5b600061055a858286016104c2565b925050602061056b85828601610520565b9150509250929050565b61057e816104a1565b82525050565b60006020820190506105996000830184610575565b92915050565b600080fd5b600080fd5b6000601f19601f8301169050919050565b7f4e487b7100000000000000000000000000000000000000000000000000000000600052604160045260246000fd5b6105f2826105a9565b810181811067ffffffffffffffff82111715610611576106106105ba565b5b80604052505050565b600061062461048d565b905061063082826105e9565b919050565b600067ffffffffffffffff8211156106505761064f6105ba565b5b610659826105a9565b9050602081019050919050565b82818337600083830152505050565b600061068861068384610635565b61061a565b9050828152602081018484840111156106a4576106a36105a4565b5b6106af848285610666565b509392505050565b600082601f8301126106cc576106cb61059f565b5b81356106dc848260208601610675565b91505092915050565b6000602082840312156106fb576106fa610497565b5b600082013567ffffffffffffffff8111156107195761071861049c565b5b610725848285016106b7565b91505092915050565b60006020828403121561074457610743610497565b5b6000610752848285016104c2565b91505092915050565b610764816104f7565b82525050565b600081519050919050565b600082825260208201905092915050565b60005b838110156107a4578082015181840152602081019050610789565b60008484015250505050565b60006107bb8261076a565b6107c58185610775565b93506107d5818560208601610786565b6107de816105a9565b840191505092915050565b60006060820190506107fe600083018661075b565b818103602083015261081081856107b0565b905061081f6040830184610575565b949350505050565b7f496e76616c696420706f6c6c20726f6f6d204944000000000000000000000000600082015250565b600061085d601483610775565b915061086882610827565b602082019050919050565b6000602082019050818103600083015261088c81610850565b9050919050565b7f4e487b7100000000000000000000000000000000000000000000000000000000600052603260045260246000fd5b7f4e487b7100000000000000000000000000000000000000000000000000000000600052602260045260246000fd5b6000600282049050600182168061090957607f821691505b60208210810361091c5761091b6108c2565b5b50919050565b60008190508160005260206000209050919050565b60006020601f8301049050919050565b600082821b905092915050565b6000600883026109847fffffffffffffffffffffffffffffffffffffffffffffffffffffffffffffffff82610947565b61098e8683610947565b95508019841693508086168417925050509392505050565b6000819050919050565b60006109cb6109c66109c1846104a1565b6109a6565b6104a1565b9050919050565b6000819050919050565b6109e5836109b0565b6109f96109f1826109d2565b848454610954565b825550505050565b600090565b610a0e610a01565b610a198184846109dc565b505050565b5b81811015610a3d57610a32600082610a06565b600181019050610a1f565b5050565b601f821115610a8257610a5381610922565b610a5c84610937565b81016020851015610a6b578190505b610a7f610a7785610937565b830182610a1e565b50505b505050565b600082821c905092915050565b6000610aa560001984600802610a87565b1980831691505092915050565b6000610abe8383610a94565b9150826002028217905092915050565b610ad78261076a565b67ffffffffffffffff811115610af057610aef6105ba565b5b610afa82546108f1565b610b05828285610a41565b600060209050601f831160018114610b385760008415610b26578287015190505b610b308582610ab2565b865550610b98565b601f198416610b4686610922565b60005b82811015610b6e57848901518255600182019150602085019450602081019050610b49565b86831015610b8b5784890151610b87601f891682610a94565b8355505b6001600288020188555050505b505050505050565b7f4e487b7100000000000000000000000000000000000000000000000000000000600052601160045260246000fd5b6000610bda826104a1565b9150610be5836104a1565b9250828203905081811115610bfd57610bfc610ba0565b5b92915050565b60006020820190508181036000830152610c1d81846107b0565b90509291505056fea26469706673582212203e6c4c083323be1e77b39197fd449cb4b357119b70ea7912c637d3b6b7a0d2e164736f6c63430008130033",
  "immutableReferences": {},
  "source": "// SPDX-License-Identifier: MIT\r\npragma solidity ^0.8.19;\r\n\r\ncontract CreateVote {\r\n    // Struct to represent a poll room\r\n    struct PollRoom {\r\n        address creator;\r\n        string title;\r\n        uint256 createdAt;\r\n        address[] voters;\r\n    }\r\n\r\n    // Array to store all created poll rooms\r\n    PollRoom[] public pollRooms;\r\n\r\n    // Event emitted when a new poll room is created\r\n    event PollRoomCreated(address indexed creator, string title, uint256 indexed roomId);\r\n\r\n    // Function to create a new poll room\r\n    function createPollRoom(string memory _title) external {\r\n        // Create a new poll room instance\r\n        address[] memory _voters;\r\n        pollRooms.push(PollRoom(msg.sender, _title, block.timestamp, _voters));\r\n\r\n        emit PollRoomCreated(msg.sender, _title, pollRooms.length - 1);\r\n    }\r\n\r\n    // Function to add a voter to a poll room\r\n    function addVoter(uint256 roomId, address voter) external {\r\n        require(roomId < pollRooms.length, \"Invalid poll room ID\");\r\n        pollRooms[roomId].voters.push(voter);\r\n    }\r\n\r\n    // Function to get the total number of poll rooms\r\n    function getPollRoomCount() external view returns (uint256) {\r\n        return pollRooms.length;\r\n    }\r\n}\r\n",
  "sourcePath": "C:\\Users\\MSi\\Documents\\PSM_code\\Decentralized-Voting-System-main\\contracts\\createVote.sol",
  "compiler": {
    "name": "solc",
    "version": "0.8.19+commit.7dd6d404.Emscripten.clang"
  },
  "schemaVersion": "3.4.16",
  "updatedAt": "2024-06-29T09:55:47.990Z",
  "networkType": "ethereum",
  "devdoc": {
    "kind": "dev",
    "methods": {},
    "version": 1
  },
  "userdoc": {
    "kind": "user",
    "methods": {},
    "version": 1
  }
}